:04000000803119280A
:100008007E1480310B1F09280A2817282100911C0B
:100018000E280F2817282000911C132814281728A9
:100028008431662480317E10090080311B282030FD
:1000380084000030850028308431942480317E107B
:1000480020008231212A20003F08031D2C282D285A
:10005800FC283E08031931283228352822000E15BD
:10006800372822000E110130F70077082000BD075D
:1000780008303D02031C41284228EA28BD013B08FC
:10008800031947284828D7283608840037088500E8
:100098000008F7007708BC000130B6070030B73D0C
:1000A8000130BB02EA28BC30B6008430B700BB017F
:1000B80036088400370885000008F7007708BC0078
:1000C8000130B6070030B73D0130F7007708B800B7
:1000D800EA2820088600870101088331DF23803160
:1000E80071082000BA007008B9000130F7007708DD
:1000F800A0070130F7007708BB003930B6000030A0
:10010800B70036088400370885000008F70077082C
:10011800BC000130B6070030B73D0130A102023003
:10012800F7007708B800EA28210803199C289D28B9
:10013800C42820088600870101088331DF23803125
:1001480071082000BA007008B9000130F70077087C
:10015800A0070130F7007708BB003930B60000303F
:10016800B70036088400370885000008F7007708CC
:10017800BC000130B6070030B73D0130A102EA28C3
:100188000130F7007708BF00EA280130F700770848
:10019800C00022000E118431B924803122008E1251
:1001A80021008E12EA283808F700F8017808003A8A
:1001B8000319DF28C9287708003A03195728013A94
:1001C80003196D28033A03199828C92820003F0805
:1001D800031DEF28F0280929BE01BC1FF428F528C3
:1001E800F9280130F7007708BE000310BC0D092973
:1001F8000130F7007708C00022000E118431B924BD
:10020800803122008E1221008E1208002000D000BA
:100218005008CC004C08D1004A084B04031D15298E
:1002280016291729AE294808CC00510886008701ED
:100238004C0881004808CC004A085107CD004D08F9
:10024800FF3E860087014C08810000304B020330D6
:1002580003194A020318312932293329AE294808DB
:10026800CC00510A860087014C0881004808CC0060
:100278005108023E860087014C0881004808CC00DE
:100288004A085107CD004D08FE3E860087014C08FC
:1002980081004808CC004A085107CD004D08FD3EB2
:1002A800860087014C08810000304B020730031993
:1002B8004A020318602961296229AE294808CC003E
:1002C8005108033E860087014C0881004808CC008D
:1002D8004A085107CD004D08FC3E860087014C08AE
:1002E800810000304B02093003194A0203187D29A6
:1002F8007E297F29AE295109CC005209CD00CC0AAC
:100308000319CD0A03304C05CE0000304D05CF004F
:100318004E08CC004C08D1074E08CA024F08CB3B08
:10032800FC30CA05FF30CB05A8294808CC00510885
:10033800860087014C0881000130CA020030CB3B9F
:100348000130CC004C08D1074A084B04031DAD29E5
:10035800AE29992908002000D4002F001913200085
:1003680013132F001A080F392000D000D00E2F00C9
:100378001A08200050060F3950062F009A0009303D
:1003880020004602031CC929CA29CE292F00920140
:100398009101D0292F00910119172000131FD52989
:1003A800D629D12913132F00191320004508FF3E21
:1003B800D000D00E2F001A08200050060F39500622
:1003C8002F009A0014082000D6002F0013082000E0
:1003D800D500103046020318F229F329072A013004
:1003E800D0000030D100460AFB29D035D10D890B49
:1003F800F9295008FF3ED200FF30513DD300520882
:10040800D5055308D605540803190B2A0C2A182AAF
:100418005608C9005508C800833167238131200078
:100428004908D6004808D5004E08D5064F08D60614
:100438005608CF005508CE00080084317424823154
:1004480084310024823134302000D0001230D100B1
:100458008431582482318B170B1721008D130130FA
:100468002000C1070030C23D0030C33D0030C43D0C
:100478000430E1006108DC004130823176228231AB
:10048800522A6300031022008D1F031403184D2AFB
:10049800502A22008D17522A22008D138431A92454
:1004A8008231003A0319592A5A2A452A0310220090
:1004B8008D1F03140318612A642A22008D17662AE7
:1004C80022008D136300031022008D1F03140318EC
:1004D8006E2A712A22008D17732A22008D13332A5F
:1004E800803119282000E00010305C0203187D2AB2
:1004F8007E2AC82A8431B3248231003A0319852A16
:10050800862AC82A20006008DD005D08C8005C084B
:10051800DE00DF015E08C9005F08CA0025308331AC
:100528003923823120002208F0390138A2005C0802
:10053800DD00DD0E22085D060F395D06A2005C08AD
:10054800033EDD005D08D70022308331032382316A
:1005580020005808B5005708B4003430DD005D08A5
:10056800C8000230C9000030CA005C08253E83314B
:100578003923823120005C08053EDD005D08CB0090
:100588002230843145248231080021000E112200D6
:100598000E118E1621008E12A5302000B600843070
:1005A800B7000330CA004A08BB0036088400370881
:1005B80085000008CA004A08BC000130B6070030B0
:1005C800B73DBD01BF01C001BE01BC1FEC2AED2A29
:1005D800F12A0130CA004A08BE000310BC0DB80158
:1005E80084311924823127302000C8000030C90026
:1005F80084319A2482318431AD248231080020006C
:10060800DA005A08D9005908DB0083319423833172
:100618008431B0248331242B5B08860087010108CC
:1006280084318124833101302000D9005908DB0747
:100638008431A0248331003A031D232B242B1C2B47
:1006480001302000D702570A031D2B2B2C2B102B0F
:100658000030CE00CF0000308131AF21833120003F
:100668004F08D8004E08D70008002000CF004808DF
:10067800CB004B08CE004F08CB004B08CD005A2BBF
:100688004E08860087010108CB004B08CC000130DA
:10069800CB004B08CE074C08CB004D0886008701DD
:1006A8004B0881000130CB004B08CD070130C9024F
:1006B8000030CA3B490A031D652B4A0A031D652BF6
:1006C800662B442B080001302000CC000030CD0000
:1006D8004608FF3E890A722BCC35CD0D890B702B4D
:1006E800CA01CB01892B481C7A2B7B2B7F2B4C080A
:1006F800CA044D08CB040130CD36CC0C890B802BB5
:100708000130C936C80C890B852B48084904031DDC
:100718008E2B8F2B772B4B08C9004A08C80008007E
:1007280082302F0099007F309A00930194012E00A7
:100738009C0199019801FF309B00FF309A009D01B0
:1007480080302F00980005309700940193011A0E0D
:100758000F39013E2000C8004808C5002F001A08BC
:100768000F39013E2000C8004808C60008002200D2
:100778008C018D018E01373021008C0070308D0086
:10078800DB308E00C93023008E0070308D001730AA
:100798008C0024008D018C018E0121009517250005
:1007A8008C018D018E01373026008C00F0308D00D1
:1007B800FF308E000800F300F601F401F501023065
:1007C800F435F50D890BE42BF31FEB2BEC2BEE2BFB
:1007D8007414EF2BF4140130F2007208F6070310BA
:1007E800F30D08307602031CFA2BFB2BE32B75085C
:1007F800F1007408F000080020002408D300230842
:10080800D2000030C800C9001430CA000030CB0044
:10081800223081310A21843120005308A400520873
:10082800A300843131248431080002302800970065
:1008380096019801F930940093012000911021004D
:100848009114BD302000C8000430C90084319A24B6
:100858008431603028009500080022008E122100A3
:100868008E120E1122000E118431B624843122001A
:100878008E1221008E1201302000C8004808C000E6
:1008880008002000CD004B0803194B2C4C2C572C8A
:100898004D08CC004C08A0004B08CC004C08A10027
:1008A8008231C9228431080050302000D200520819
:1008B800C8000230C9000030CA0023308331392310
:1008C800843108002000911079087A0403196D2CEE
:1008D8006E2C732C7A088A0079080A008431080083
:1008E8008331BB23843184318D24843184311924AC
:1008F800843183319423843108002000C8002F00FC
:100908001918872C882C8C2C200048082F0091005F
:100918000800603021009900980122009601080023
:10092800640080010131890B952C003420004908AE
:10093800FA004808F90008002F00190E890C01393F
:100948000800AA34AA34AA34AA348431B3248431DE
:1009580008002800951708002F0019170800200024
:10096800400808002800951308002800951308007F
:040978003A34080005
:020000040001F9
:08000000FF3FFF3FFF3FFF3F00
:06000E00FC3FFF3EEB0683
:00000001FF
