:04000000803119280A
:100008007E1480310B1F09280A2817282100911C0B
:100018000E280F2817282000911C132814281728A9
:100028008331922380317E10090080311B282030D3
:1000380084000030850028308331CC2380317E1045
:1000480020008131642920003F08031D2C282D2819
:10005800E6283E08031931283228352822000E15D3
:10006800372822000E110130F70077082000BD075D
:1000780008303D02031C41284228D628BD013B0810
:10008800031947284828C3283608840037088500FC
:100098000008BC000130B6070030B73D0130BB0294
:1000A800D628F430B6008330B700BB013608840088
:1000B800370885000008BC000130B6070030B73D9E
:1000C8000130B800D628200886008701010883314E
:1000D8000423803171082000BA007008B90001308B
:1000E800F7007708A0070130BB003930B6000030B0
:1000F800B70036088400370885000008BC000130C6
:10010800B6070030B73D0130A1020230B800D6284A
:100118002108031990289128B4282008860087010F
:10012800010883310423803171082000BA00700867
:10013800B9000130F7007708A0070130BB0039305B
:10014800B6000030B700360884003708850000087C
:10015800BC000130B6070030B73D0130A102D628F7
:100168000130BF00D6280130C00022000E118331B3
:10017800F123803122008E1221008E12D6283808F1
:10018800F700F8017808003A0319CB28B728770850
:10019800003A03195528013A03196728033A031945
:1001A8008C28B72820003F08031DDB28DC28F1280D
:1001B800BE01BC1FE028E128E3280130BE0003107F
:1001C800BC0DF1280130C00022000E118331F1234B
:1001D800803122008E1221008E1208002000D400E7
:1001E8002F001913200013132F001A080F392000AD
:1001F800D000D00E2F001A08200050060F395006E4
:100208002F009A00093020004602031C0C290D29F2
:1002180011292F009201910113292F00910119171B
:100228002000131F18291929142913132F00191333
:1002380020004508FF3ED000D00E2F001A082000ED
:1002480050060F3950062F009A0014082000D600D7
:100258002F0013082000D500103046020318352956
:1002680036294A290130D0000030D100460A3E29FB
:10027800D035D10D890B3C295008FF3ED200FF3004
:10028800513DD3005208D5055308D6055408031923
:100298004E294F295B295608C9005508C8008231E4
:1002A8006A22803120004908D6004808D5004E0847
:1002B800D5064F08D6065608CF005508CE000800C8
:1002C8008331A023813183314023813134302000B0
:1002D800D0001230D1008331AD2381318B170B1739
:1002E80021008D1301302000C1070030C23D0030CD
:1002F800C33D0030C43D0430DC0041308131B721BA
:10030800813193296300031022008D1F0314031801
:100318008E29912922008D17932922008D1383316C
:10032800E1238131003A03199A299B298629031070
:1003380022008D1F03140318A229A52922008D1756
:10034800A72922008D136300031022008D1F0314B8
:100358000318AF29B22922008D17B42922008D1362
:100368007629803119282000DF0010305C0203183C
:10037800BE29BF29012A8331EB238131003A0319B1
:10038800C629C729012A20005F08C8005C08DD00CB
:10039800DE015D08C9005E08CA0025308231972257
:1003A800813120002208F0390138A2005C08DD0004
:1003B800DD0E22085D060F395D06A2005C08033ECB
:1003C800D700223082313622813120005808B5000A
:1003D8005708B4003430C8000230C9000030CA00E1
:1003E8005C08253E82319722813120005C08053E59
:1003F800CA002230833183238131080021000E1185
:1004080022000E118E1621008E12DD302000B6005B
:100418008330B7000330BB003608840037088500F6
:100428000008BC000130B6070030B73DBD01BF0170
:10043800C001BE01BC1F212A222A242A0130BE0085
:100448000310BC0DB80183315923823127302000B5
:10045800C8000030C9008331D22382318331E523BB
:10046800823108002000DA005A08DB008231E122DC
:1004780082318331E8238231552A5B08860087015F
:1004880001088331B923823101302000D90059088D
:10049800DB078331D8238231003A031D542A552AB9
:1004A8004D2A01302000D702570A031D5C2A5D2A15
:1004B800412A0030CE00CF0000308031F220823156
:1004C80020004F08D8004E08D7000800013020004F
:1004D800CC000030CD004608FF3E890A752ACC358D
:1004E800CD0D890B732ACA01CB018C2A481C7D2AA1
:1004F8007E2A822A4C08CA044D08CB040130CD3626
:10050800CC0C890B832A0130C936C80C890B882A80
:1005180048084904031D912A922A7A2A4B08C900DF
:100528004A08C80008002000CF004808CE004F083D
:10053800CD00B02A4E08860087010108CC000130A2
:10054800CB004B08CE074D08860087014C08810078
:100558000130CB004B08CD070130C9020030CA3B3F
:10056800490A031DBB2A4A0A031DBB2ABC2A9E2A24
:10057800080022008C018D018E01373021008C008B
:1005880070308D00DB308E00C93023008E00703053
:100598008D0017308C0024008D018C018E01210004
:1005A800951725008C018D018E01373026008C00AF
:1005B800F0308D00FF308E00080082302F00990047
:1005C8007F309A00930194012E009C0199019801B3
:1005D800FF309B00FF309A009D0180302F0098006B
:1005E80005309700940193011A0E0F39013E20003F
:1005F800C5002F001A080F39013E2000C600080068
:10060800F300F601F401F5010230F435F50D890B1C
:10061800092BF31F102B112B132B7414142BF41408
:100628000130F2007208F6070310F30D0830760265
:10063800031C1F2B202B082B7508F1007408F000F1
:1006480008002000CD004D08CE00332B4E08860050
:100658008701480881000130CC004C08CE070130E2
:10066800CA020030CB3B4A0A031D3E2B4B0A031D2E
:100678003E2B3F2B2A2B080020002408D0002308FB
:10068800CF000030C800C9001430CA000030CB00C9
:10069800223083312523833120005008A4004F08DD
:1006A800A3008331712383310800023028009700AA
:1006B80096019801F93094009301200091102100CF
:1006C8009114F5302000C8000330C9008331D223CB
:1006D8008331603028009500080022008E12210026
:1006E8008E120E1122000E118331EE238331220067
:1006F8008E1221008E1201302000C0000800200058
:10070800CB004A080319892B8A2B912B4B08A00090
:100718004A08A1008231022283310800200091108A
:1007280079087A040319992B9A2B9F2B7A088A0047
:1007380079080A00833108008231BD228331833170
:10074800C52383318331592383318231E1228331B7
:10075800080050302000C8000230C9000030CA002C
:10076800233082319722833108002000C8002F00EF
:100778001918BF2BC02BC42B200048082F0091004C
:1007880008006030210099009801220096010800B5
:10079800640080010131890BCD2B00342000490809
:1007A800FA004808F90008002F00190E890C0139D1
:1007B8000800AA34AA34AA34AA348331EB2383313B
:1007C80008002800951708002F00191708002000B6
:1007D8004008080028009513080028009513080011
:0407E8003A34080097
:020000040001F9
:08000000FF3FFF3FFF3FFF3F00
:06000E00FC3FFF3EEB0683
:00000001FF
