:0400000029EF00F0F4
:06000800428244EF10F0FB
:100018004280D8CFB2F0E8CFB3F0E0CFB4F0FACF57
:10002800B5F0FBCFB6F00E01C3B1CBA102D0A7EC5F
:1000380011F0B6C0FBFFB5C0FAFFB4C0E0FFB3C013
:0E004800E8FFB2C0D8FF4290100028EF11F080
:100F0000000040074572723A2025642C204352436A
:100F10003A202564002052462044656D6F2C2052F3
:100F20006576203400204D49435246203232302F1E
:100F30003231394100503A2025642C204275663AFE
:100F400020256400525353493A2025642F2564001C
:0D0F5000543A256C6420523A256C64000070
:100F5E00C751D96EDA6ADFCFF6FF0F0EF76E000EAD
:100F6E00F86E0800F550250AD8A4E8D0C751D96EFE
:100F7E00DA6ADF2A000E206E000E1F6E1FC023F0ED
:100F8E0021682268C751D96EDA6ADF50CF6FCFC0A1
:100F9E00F6FF0F0EF76E000EF86E0800F5CFD0F0CC
:100FAE0007D0CF2B10D0690E01D0000ED06F0BD012
:100FBE00D051640AD8B4F7D70D0AD8B4F4D7050ABD
:100FCE00D8B4EFD7F2D7CFC0F6FF0F0EF76E000EE4
:100FDE00F86E0800F550640AD8B42FD0CFC0F6FFD3
:100FEE000F0EF76E000EF86E0800F550690AD8B4B1
:100FFE0024D09ED0C851D96EDA6ADF50DF2ADF2A9C
:10100E00D96EDA6ADECFCBF0DDCFCCF0000ECCBFDE
:10101E00FF0ECD6FCE6F18D0C851D96EDA6A040E9E
:10102E00DF26DF5CD96EDA6ADECFCBF0DECFCCF016
:10103E00DECFCDF0DECFCEF007D0D051690AD8B4D6
:10104E00D9D7050AD8B4E8D7C751D96EDA6ACF29ED
:10105E00DF6E200ED06FCEAF02D0010E01D0000E8B
:10106E00CA6FD007D051600FD96EDA6ACBC0B7F015
:10107E00CCC0B8F0CDC0B9F0CEC0BAF00A0EBB6F7E
:10108E00000EBC6F000EBD6F000EBE6FBEEC0CF0FE
:10109E00B7C0C1F0B8C0C2F06CEC11F0C151300F46
:1010AE00DF6ECBC0B7F0CCC0B8F0CDC0B9F0CEC0BB
:1010BE00BAF00A0EBB6F000EBC6F000EBD6F000EB5
:1010CE00BE6FFBEC0BF0B7C0CBF0B8C0CCF0B9C024
:1010DE00CDF0BAC0CEF0CB51CC11CD11CE11D8B4CB
:1010EE0003D0D051D8A4BDD7D051D8B41CD0CA513A
:1010FE00D8B419D0D007D051600FD96EDA6A2D0E40
:10110E00DF6E11D0D051600FD96EDA6ADF50C96F21
:10111E00C951BC6FBD6BC5C0BEF0C6C0BFF014ECEC
:10112E000DF00001D02B200ED019D8B41200EAD742
:10113E000001C751D96EDA6ADF2A1200C751D96E83
:10114E00DA6ADFCFF6FF0F0EF76E000EF86E0800AC
:10115E00F550BC6FBD6BC5C0BEF0C6C0BFF014EC81
:10116E000DF0E6D701018B51D8B45CD08951D8B4BB
:10117E0059D00F0E4E6502D0000E4E6F4E51020D1D
:10118E002C0EF324D96E010EF420DA6EDECFB9F0F8
:10119E00DDCFBAF00001B951B75DBB6FBA51B85986
:1011AE00BC6FBD6BD8A0BD07BD51BE6F01012851EC
:1011BE000001BB250101286F29510001BC2101014D
:1011CE00296F2A510001BD2101012A6F2B51000107
:1011DE00BE2101012B6F4E51020D2C0EF324D96E40
:1011EE00010EF420DA6EB7C0DEFFB8C0DDFF28C1F5
:1011FE00B9F029C1BAF02AC1BBF02BC1BCF0050E63
:10120E0006D00001D890BC33BB33BA33B933E82EC5
:10121E00F8D7B9C04CF1BAC04DF101014E2BFA0E00
:10122E00276F12008951D8A4120027072729D8A4A6
:10123E0012000A0E276F0F0E266502D0000E266FC3
:10124E002651020D040EF324D96E010EF420DA6E2F
:10125E00DECFB9F0DDCFBAF00001B951B75DBB6F8B
:10126E00BA51B859BC6FBD6BD8A0BD07BD51BE6F8A
:10127E00010100510001BB250101006F0151000168
:10128E00BC210101016F02510001BD210101026F5C
:10129E0003510001BE210101036F2651020D040E00
:1012AE00F324D96E010EF420DA6EB7C0DEFFB8C09B
:1012BE00DDFF00C1B9F001C1BAF002C1BBF003C13C
:1012CE00BCF0050E06D00001D890BC33BB33BA3348
:1012DE00B933E82EF8D7B9C024F1BAC025F101010F
:1012EE00262B1200000E8EB2010E166E000E146E1C
:1012FE0001018A51D8A4ADD0165052275351D8B4FB
:10130E0016C088F1532B090E53652ED0000E536F65
:10131E00D89050375137040E526516D05081165062
:10132E00D8A409D08851D8B406D016505227532BC2
:10133E0016C088F115D08851D8A412D01650D8B442
:10134E000FD0010E8A6F0CD01604D8A403D08805D6
:10135E00D8A4EBD78805D8A403D01604D8A4F1D707
:10136E00010E146E000E526F1450D8B40ED03A0EF9
:10137E0050190BE1AA0E5119D8A407D0010E896F8E
:10138E00000E876F000E546F12001450D8B4120066
:10139E008951D8B41200000E156E8751D8B40CD0F6
:1013AE005051070B136E070E1318D8B403D01350F9
:1013BE00D8A402D0010E156E1550D8A427D0542BE8
:1013CE000F0E546523D0000E546F505151C110F0C2
:1013DE00116E1050506F11C051F1550E8725016ED0
:1013EE00026A010E0222500E036E010E046E020EF0
:1013FE00056E64EC0DF00009D8B406D0010E8B6FAB
:10140E00872B310E876502D0010E156E1550D8B49C
:10141E001200000E896F000E8B6F8C518D118E1184
:10142E00D8B41200020E87651200550E0C6E010E16
:10143E000D6E87C10EF021EE8CF001D81200050062
:10144E00FA6EDE50FD6EDE50FE6EDE50FF6EFA500E
:10145E001200000E8A6F1200CBEC11F0000EB3ECEE
:10146E000DF08AEC12F08894E5EC0AF0150E0001EE
:10147E00D66F08EC12F0000EBB6F010E10EC11F0DF
:10148E00250E0001D66F08EC12F0150E0001E16F6B
:10149E004B0EE06FBE0EE82EFED7E02FFCD7E12FED
:1014AE00FAD70000C0EC10F0F28EF28C66EC10F061
:1014BE00940E0001CB6F010ECC6F73EC0BF0000994
:1014CE00D8B4F4D7A80EC26F010EC36FFAEC11F0A8
:1014DE002DEC12F0000E0001BB6F000E10EC11F09F
:1014EE008EA03CD0440E0001D66F0101A651000122
:1014FE00D76FD86BD7BFD8070101A7510001D96F9D
:10150E00DA6BD9BFDA0708EC12F0000EBB6F010ED2
:10151E0010EC11F0900E0001B76F010EB86F970E20
:10152E00B96F010EBA6F000EBC6F040EBB6F22ECCA
:10153E0010F0500ED66F90C1D7F091C1D8F092C175
:10154E00D9F093C1DAF0A8C1DBF0A9C1DCF0AAC1D1
:10155E00DDF0ABC1DEF008EC12F0A8D7040E0001EE
:10156E00D66FB8C1D7F0B9C1D8F0BAC1D9F0BBC1E6
:10157E00DAF0ACC1DBF0ADC1DCF0AEC1DDF0AFC175
:10158E00DEF008EC12F0000EBB6F010E10EC11F045
:10159E00350E0001D66FB0C1D7F0B1C1D8F0B2C1CF
:1015AE00D9F0B3C1DAF0B4C1DBF0B5C1DCF0B6C12D
:1015BE00DDF0B7C1DEF008EC12F078D7000E0001B6
:1015CE00B86F000EDCEC11F0000E0001B86F010ECA
:1015DE00DCEC11F0200E0001B86F120EDCEC11F0F5
:1015EE001A0E0001BB6FF80EE82EFED7BB2FFCD7EC
:1015FE0000003C0E80EC11F01A0E0001BB6FF80ECD
:10160E00E82EFED7BB2FFCD700000C0E80EC11F09D
:10161E001A0E0001BB6FF80EE82EFED7BB2FFCD7BB
:10162E000000010E80EC11F01A0E0001BB6FF80ED7
:10163E00E82EFED7BB2FFCD700000C0E80EC11F06D
:10164E00340E0001BB6FF10EE82EFED7BB2FFCD778
:10165E0000D0340E0001BB6FF10EE82EFED7BB2F6B
:10166E00FCD700D0340E0001BB6FF10EE82EFED772
:10167E00BB2FFCD700D0340E0001BB6FF10EE82E4D
:10168E00FED7BB2FFCD700D0340E0001BB6FF10E7E
:10169E00E82EFED7BB2FFCD700D0340E0001BB6F57
:1016AE00F10EE82EFED7BB2FFCD700D0340E000172
:1016BE00BB6FF10EE82EFED7BB2FFCD700D0800EED
:1016CE0080EC11F0030E0001BB6F970EE82EFED7D3
:1016DE00BB2FFCD700D01200000ECF6F2450D8B411
:1016EE0081D0860EB76FB86B9C0EB96FBA6B000EB9
:1016FE00BC6F140EBB6F22EC10F0000E246E980E11
:10170E00B76FB86B86390F0BCD6FCD51890FCE6F7A
:10171E00CEC0B9F0BA6B000EBC6F020EBB6F22ECDE
:10172E0010F0860EC86F86390F0B030FC96FFDECD4
:10173E000FF09851C81950E19951C919D8A44CD03D
:10174E0086510F0BE806D8A440D020EE02F0CB5104
:10175E00D926CC51DA2286390F0BDF6E20EE12F02D
:10176E00CB51D926CC51DA229AC0DFFF20EE13F0EE
:10177E00CB51D926CC51DA229BC0DFFFCBC0B7F0BC
:10178E00CCC0B8F0870EB96FBA6B000EBC6F020EEC
:10179E00BB6F22EC10F0030ECB25B76F000ECC21E1
:1017AE00B86F890EB96FBA6B86390F0BCD6FCD51ED
:1017BE00BB6FBC6B22EC10F0010ECF6F010E252615
:1017CE00000E2622272228220DD0010E2D26000ED5
:1017DE002E222F22302206D0010E2926000E2A227A
:1017EE002B222C22CF511200000EC06FBEAF0AD09A
:1017FE00BE1FBD1FBC1FBB6D000EBC23BD23BE2371
:10180E00010EC06FBAAF0AD0BA1FB91FB81FB76D9D
:10181E00000EB823B923BA23010EC01B000EC16FF0
:10182E00000EC26F000EC36F000EC46FBB51BC1111
:10183E00BD11BE11D8B42AD0010EBF6F06D0D890FC
:10184E00BB37BC37BD37BE37BF2BBEAFF8D7D8902E
:10185E00C137C237C337C437BB51B75DBC51B85956
:10186E00BD51B959BE51BA59D8A009D0BB51B75FB5
:10187E00BC51B85BBD51B95BBE51BA5BC181D8904A
:10188E00BE33BD33BC33BB33BF2FE1D7C051D8B449
:10189E0008D0C41FC31FC21FC16D000EC223C323B5
:1018AE00C423C1C0B7F0C2C0B8F0C3C0B9F0C4C041
:1018BE00BAF01200C36F7C9C0E01D19D7D500F0BB0
:1018CE000001C06FC03B7D50C0190F0BC0197D6E5B
:1018DE00080E3A6402D0000E756E000E746E7C8C8B
:1018EE000E01D1ADFDD7D19D7C9C39C0C0F0FF0E4D
:1018FE000001C027C03B7D50C0190F0BC0197D6E73
:10190E007750C06F7650C66FC0C0C7F0100E3A60E9
:10191E0018D03AC0C0F0010EC16F000EC26FC02BBE
:10192E0003D0D890C137C237C02FFBD7FF0E0001AE
:10193E00C125C46FFF0EC221C56FC451C617C55154
:10194E00C717C351D8B40AD0C6C0B7F0C7C0B8F0D5
:10195E00AAEC0FF0B7C0C6F0B8C0C7F0BE51C61B98
:10196E00BF51C71BC6C0BEF0C7C0BFF01200000EED
:10197E00C06FBAAF0AD0BA1FB91FB81FB76D000E2D
:10198E00B823B923BA23010EC06FBEAF08D0BE1F55
:10199E00BD1FBC1FBB6D000EBC23BD23BE23BB51A0
:1019AE00BC11BD11BE11D8B424D0010EBF6F06D02C
:1019BE00D890BB37BC37BD37BE37BF2BBEAFF8D7BD
:1019CE00BB51B75DBC51B859BD51B959BE51BA5989
:1019DE00D8A008D0BB51B75FBC51B85BBD51B95B45
:1019EE00BE51BA5BD890BE33BD33BC33BB33BF2FB1
:1019FE00E7D7C051D8B408D0BA1FB91FB81FB76DFA
:101A0E00000EB823B923BA23B7C0B7F0B8C0B8F0E8
:101A1E00B9C0B9F0BAC0BAF01200BE51BF11D8B4F5
:101A2E0004D0BE51BF11D8A404D0BC5178EC12F032
:101A3E00120020EE0AF0BE51D926BF51DA22DE5036
:101A4E00DE10D8B416D020EE0AF0BE51D926BF5102
:101A5E00DA2210EE03F0BE51E126BF51E222DE5033
:101A6E00E65CE650800AC46FDE50800AC459D8B0D6
:101A7E00120020EE03F0BE51D926BF51DA22DECF7E
:101A8E00C0F0DDCFC1F0BEC0D9FFBFC0DAFFDECFE0
:101A9E00C2F0DDCFC3F0C051C225D96EC151C321F2
:101AAE00DA6EBCC0DFFF20EE03F0BE51D926BF5167
:101ABE00DA22DE2A000EDD221200000E0E6E05B0B6
:101ACE0049D0010E0E6E000E0D6E01C008F002C060
:101ADE0009F003C00AF004C00BF035D0000E0F6EF3
:101AEE000AC0D9FF0BC0DAFFDF500C6E0A4A0B2A70
:101AFE00D8900D3205D00D8E12D0000E0E6E0FD076
:101B0E000C50030B066E076A0750000AD8A4F5D7CF
:101B1E000650010AD8B4EFD7030AD8A4EED70F2A7D
:101B2E00D8900C32D8900C32030E0F64E1D705B06A
:101B3E000AD008C0D9FF09C0DAFF0DC0DFFF084A7E
:101B4E00092A000E0D6E0E50D8B404D005060528D5
:101B5E00D8A4C4D70E501200B96F96BA1200130E45
:101B6E000E01B76F140EB86F0F0EFA6F100EFC6FDA
:101B7E000001B951030DF3CFB7F0010EB727B751DE
:101B8E00010FB86FB8C0F6FF0F0EF76E000EF86EAD
:101B9E000800F5CF95FFB951030DF350010FB76F44
:101BAE00B7C0F6FF0F0EF76E000EF86E0800F55078
:101BBE002A09966E000E976EB951030DF3CFB7F04A
:101BCE00020EB727B751010FB86FB8C0F6FF0F0E50
:101BDE00F76E000EF86E0800F5CF93FF8A9612008E
:101BEE00000E876E000E866E000E836E200E846EC3
:101BFE00000E856E070E8C6EFB0E886EDF0E896EE4
:101C0E00D70E8A6EF00E8B6E000E0F01266F470EEA
:101C1E00216FDC0E196F070E2E6FFB0E116F000E6B
:101C2E00256F000E2D6F000E186F000E106F000E38
:101C3E00206F000E2C6F000E0F6F000E176F000E30
:101C4E001F6F000E246F0E6916691E692369070E39
:101C5E002B6F130E0E01B76F0F0EFA6F100EFC6F77
:101C6E00140EB86F1200000E066E04AE06D0036C92
:101C7E00041ED8B0042A010E066E02AE06D0016C08
:101C8E00021ED8B0022A010E061A000E086E000EB1
:101C9E00076E03500410D8B41CD0010E056E04D08C
:101CAE00D89003360436052A04AEFAD7D8900736F4
:101CBE0008360350015C04500258D8A005D00350DA
:101CCE00015E0450025A0780D89004320332052E6A
:101CDE00EDD70650D8B404D0076C081ED8B0082A29
:101CEE0007C001F008C002F01200000ECB6F000E0C
:101CFE00CC6F000ECD6F000ECE6FC751C811C9113B
:101D0E00CA11D8B42AD0010ECF6F06D0D890C737DB
:101D1E00C837C937CA37CF2BCAAFF8D7D890CB3709
:101D2E00CC37CD37CE37C751C35DC851C459C95111
:101D3E00C559CA51C659D8A009D0C751C35FC85199
:101D4E00C45BC951C55BCA51C65BCB81D890CA333F
:101D5E00C933C833C733CF2FE1D7CBC0C3F0CCC004
:101D6E00C4F0CDC0C5F0CEC0C6F01200820E7C6E9F
:101D7E007F0E7D6E000E766E000E776E000E0F01DA
:101D8E004F6F000E4B6F000E4A6F000E496F3F0EE5
:101D9E004E6F4D694C69000E506F800E0001B96F89
:101DAE00050EB86FB9C07BFF050E7A6E000EBB6FC5
:101DBE00000EBA6FBBC077FF000E766E7D380F0B2C
:101DCE00B76FB729396E7D500F0BB76FB7293A6EC3
:101DDE001200000E6A6E000E6B6E000E6C6E000E20
:101DEE006D6E000E686E000E696E000E666E000E51
:101DFE000F015F6F000E5D6F000E596F000E5A6F70
:101E0E00000E5B6F000E656E000E586F080E566F5B
:101E1E00000E576F900E606E000E5C6F0E01CB9130
:101E2E00C381540E0001B76F250EB86F000EB96F47
:101E3E0055EC12F012002450D8A428D0150E0E60C6
:101E4E001ED09C0E0F6E0CD00CC0D9FF0DC0DAFF49
:101E5E000F50E16EE26ADFCFE7FF0C4A0D2A0F2A20
:101E6E000E060E28D8A4F0D7DCEC10F000019A6F05
:101E7E00A3EC10F000019B6F010E246E1200010EF8
:101E8E003526000E3622372238221200010E312658
:101E9E00000E3222332234221200D0C0B7F0D1C04D
:101EAE00B8F0B96BBA6BB20EBB6FC40EBC6F000E3E
:101EBE00BD6F000EBE6F7FEC0FF0B7C0C3F0B8C0A1
:101ECE00C4F0B9C0C5F0BAC0C6F0400EC76F420E1E
:101EDE00C86F0F0EC96F000ECA6F7CEC0EF0C3C038
:101EEE00D2F0C4C0D3F0D2C0D0F0D3C0D1F0120023
:101EFE00000EBF6F000EC06F000EC16F000EC26FDE
:101F0E00B7A108D0BB51BF27BC51C023BD51C123BF
:101F1E00BE51C223D890BB37BC37BD37BE37D89021
:101F2E00BA33B933B833B733B751B811B911BA118F
:101F3E00D8A4E6D7BFC0B7F0C0C0B8F0C1C0B9F0E2
:101F4E00C2C0BAF01200000EBD6F010EBC6F3AC0D7
:101F5E00B9F0FF0EB927B92903D0D890BC37BD37D9
:101F6E00E82EFBD7000E0001BB6F000EBA6F0CD02F
:101F7E00B7A104D0BC51BA13BD51BB13D890BD3319
:101F8E00BC33D890B833B733B751B811D8A4F0D703
:101F9E00BAC0B7F0BBC0B8F012000001BF6F0001AD
:101FAE00BF51D8B41BD0010E01018F6F3FEC11F061
:101FBE00F20E0001B76F120EB86F000EB96F63EC20
:101FCE0012F09EEC12F0720EB76F110EB86F000E7B
:101FDE00B96F6AEC12F090EC12F012009BEC12F05A
:101FEE00A1EC12F0000E01018F6F1200C8C0CAF0F2
:101FFE00BDEC0EF0ADEC12F00DD0CA51D96EDA6A0E
:10200E00DF5084EC12F00001CA2B7EEC12F00009B6
:10201E00D8A4FBD70001C907C929D8A4EED7000E52
:10202E00BF6F000EBE6F000E61EC0CF0BEC0C8F0AC
:10203E00BFC0C9F01200B9C0C0F0BAC0C1F0B7C07D
:10204E00BEF0B8C0BFF010D0C0C0D9FFC1C0DAFF1B
:10205E00DF50BD6FC04BC12BBEC0D9FFBFC0DAFF72
:10206E00BDC0DFFFBE4BBF2BBB07D8A0BC07BB2933
:10207E00EBE1BC29D8B41200E7D7FACF17F0FBCFAB
:10208E0018F0E1CF19F0E2CF1AF0D9CF1BF0DACF6A
:10209E001CF00E01C6B7CEA703D0B9EC11F001D0DB
:1020AE0000001CC0DAFF1BC0D9FF1AC0E2FF19C026
:1020BE00E1FF18C0FBFF17C0FAFF429211000001AA
:1020CE008551D8B41200000E856F83C0D0F084C045
:1020DE00D1F054EC0FF0D0C0D4F0D1C0D5F0D4C0B4
:1020EE00B7F0D5C0B8F001D812000500FA6E8051D5
:1020FE00FD6E8151FE6E8251FF6EFA501200D3C0FA
:10210E00D5F00AD0D1C0C5F0D2C0C6F0D50EC76F7B
:10211E00D4C0C8F0AFEC07F0D5C0F6FF0F0EF76EC7
:10212E00000EF86E0800F5500009D8A4EBD7000E8B
:10213E00D26F000ED16F120021EE24F0DECF09F027
:10214E00DDCF0AF0D89009360A36D89009360A360D
:10215E00300E0924016EF80E0A20026E000E046E77
:10216E00640E036E3AEC0EF00150920F0B6E0B5094
:10217E0012003FEC11F0010ED4EC0FF0440E0001F2
:10218E00B76F1E0EB86F000EB96F5CEC12F0250E15
:10219E00B76FB86B000EBA6F000EB96F000EBC6F42
:1021AE00140EBB6F56EC11F0120021EE4CF0DECF88
:1021BE0009F0DDCF0AF0D89009360A36D8900936E4
:1021CE000A36300E0924016EF80E0A20026E000E39
:1021DE00046E640E036E3AEC0EF00150920F120074
:1021EE00020EB96E000EB86E000EBA6E310EB66EDD
:1021FE00000EB56E0E01CE97C6876E0E0001B76F3C
:10220E00250EB86F000EB96F63EC12F0C00EB76EEC
:10221E001200C16F020E0001C1611200C151D8B48B
:10222E0002D0C00E01D0800EBBC0BCF0BD6BBC1185
:10223E00BF6FBD51C06FBFC0BEF0BE5180EC11F07C
:10224E00120001EE00F0900EEE6AE806FDE100EEDF
:10225E0060F0500EEE6AE806FDE100EE1FF01D0E76
:10226E00EE6AE806FDE142904292000133EF0AF079
:10227E008982000E0001B76F010EB86F000EBA6FA3
:10228E00000EB96F000EBC6F900EBB6F56EC11F0C6
:10229E00000E01018C6F000E8D6F8E6B1200B7C099
:1022AE00BDF0B8C0BEF008D0BDC0D9FFBEC0DAFFC9
:1022BE00B9C0DFFFBD4BBE2BBB07D8A0BC07BB29E7
:1022CE00F3E1BC29D8B41200EFD7C2BF05D0C1C00C
:1022DE00C1F0C2C0C2F01200C1C0C3F0C2C0C4F08F
:1022EE00C31FC41FC34BC42BC3C0C1F0C4C0C2F0B4
:1022FE0012000001BA6F600E0001B86F120EDCEC16
:10230E0011F0BAC0B8F0130EDCEC11F0200E000183
:10231E00B86F120EDCEC11F01200BA6FE00E000175
:10232E00B86F120EDCEC11F0BAC0B8F0130EDCEC84
:10233E0011F0A00E0001B86F120EDCEC11F01200BD
:10234E00CB913F5040104110D8B4120001D812006A
:10235E000500FA6E3F50FD6E4050FE6E4150FF6E0E
:10236E00FA501200CE973C503D103E10D8B41200D9
:10237E0001D812000500FA6E3C50FD6E3D50FE6E07
:10238E003E50FF6EFA50120096EC12F015EC12F061
:10239E00F7EC0DF022EC12F0ECEC11F0BDEC0EF0BF
:1023AE00F0EC0EF0F7EC10F012000001B96F839410
:1023BE00400E37EC12F00001B95137EC12F000016B
:1023CE00B85137EC12F083841200010EB36E000E7A
:1023DE00B26E000EB46E1E0EB06E000EAF6ECE9BC1
:1023EE00F10EB16E1200C2C0B7F0C3C0B8F0250E28
:1023FE00B96FBA6B000EBC6F140EBB6F22EC10F0EF
:10240E001200D70EDF6F000ED16F000ED26FD6C046
:10241E00D3F0DF0ED46F86EC10F01200000EE16FD9
:10242E00000EE26F000EE36F000EE46F000EE56F1C
:10243E00000EE66F1200600ED86F000EDA6F000EFF
:10244E00DC6F030EDE6F000EDD6F1200010E80ECEE
:10245E0011F0000E0001BB6F000E10EC11F0120017
:10246E000001B76FB7C092FF0E01CDA1FDD7CD9180
:10247E0092501200010E0001856F4BEC12F01DC040
:10248E0083F01EC084F012006450B16FB06B6350C5
:10249E00B0251D6E000EB1211E6E1200B7C03FF0AA
:1024AE00B8C040F0B9C041F01200B7C08CF1B8C04E
:1024BE008DF1B9C08EF11200B7C03CF0B8C03DF03E
:1024CE00B9C03EF01200B7C080F0B8C081F0B9C0FC
:1024DE0082F012000001B76FB7C05FFF608E6080A0
:1024EE001200BB6F0001BB5194EC11F012007CAADC
:1024FE0002D0010E1200000E1200B76F7CB0120057
:10250E00B7C074FF1200100E71EC12F090EC12F0C6
:10251E001200100E71EC12F0A7EC12F01200F28AFB
:10252E000E01BE87BB911200AFEC12F01200B1EC9F
:10253E0012F01200A4EC12F01200B3EC12F0120022
:10254E00B5EC12F0120041EC12F012007C8C12006D
:10255E00B79E1200B78E1200B19E1200B18E1200FD
:02256E00120059
:020000040020DA
:10000000FFFFFFFFFFFFFFFFFFFFFFFFFFFFFFFF00
:020000040030CA
:0C0000008CFFFFFF9FFFFFDFFFFFFFFFF3
:00000001FF
