:0400000029EF00F0F4
:06000800408264EF13F0DA
:100018004080D8CF60F0E8CF61F0E0CF62F0FACF4F
:1000280063F0FBCF64F00E01C3B1CBA102D0CBECDF
:1000380014F064C0FBFF63C0FAFF62C0E0FF61C058
:0E004800E8FF60C0D8FF4090100061EF14F098
:100F0000000040074572723A2025642C204352436A
:100F10003A202564002052462044656D6F2C2052F3
:100F20006576203400204D49435246203232302F1E
:100F30003231394100503A2025642C204275663AFE
:100F400020256400525353493A2025642F2564001C
:100F5000543A256C6420523A256C64006C69000098
:100F6000AB51D96EDA6ADFCFF6FF0F0EF76E000EC7
:100F7000F86E0800F550250AD8A4FED0AB51D96E02
:100F8000DA6ADF2A000ED96F000ED86FD8C0DCF005
:100F9000D9C0DDF0DA69DB69AB51D96EDA6ADFCF2F
:100FA000F6FF0F0EF76E000EF86E0800F550640A9B
:100FB000D8B40ED0AB51D96EDA6ADFCFF6FF0F0E80
:100FC000F76E000EF86E0800F550690AD8A434D008
:100FD000AB51D96EDA6ADF2AAC51D96EDA6ADF50CA
:100FE000DF2ADF2AD96EDA6ADECFBAF0DDCFBBF0B6
:100FF000000EBBBFFF0EBC6FBD6FBE6FBF6FC06F7B
:10100000C16FA9C085F0AAC086F0BAC087F0BBC086
:1010100088F0BCC089F0BDC08AF0BEC08BF0BFC0F4
:101020008CF0C0C08DF0C1C08EF0D5EC08F085C04A
:10103000A9F086C0AAF01200AB51D96EDA6ADF506F
:10104000656F590E666F000E686F020E676F7CEC5D
:101050000FF065516611D8B411D0AB51D96EDA6A70
:10106000DF50656F5C0E666F000E686F020E676F73
:101070007CEC0FF065516611D8A453D0AB51D96EFA
:10108000DA6A020EDF26AC51D96EDA6ADFCFADF034
:10109000040EDF26AD51D96EDA6ADECFAEF0DECFB8
:1010A000AFF0DECFB0F0DECFB1F0AEC0B2F0AFC087
:1010B000B3F0B0C0B4F0B1C0B5F0B66BB5BFB669AF
:1010C000B6C0B7F0B6C0B8F0B6C0B9F0B2C0BAF0AA
:1010D000B3C0BBF0B4C0BCF0B5C0BDF0B6C0BEF08C
:1010E000B7C0BFF0B8C0C0F0B9C0C1F0A9C085F0AA
:1010F000AAC086F0BAC087F0BBC088F0BCC089F037
:10110000BDC08AF0BEC08BF0BFC08CF0C0C08DF0F7
:10111000C1C08EF0D5EC08F085C0A9F086C0AAF059
:101120001200AB51D96EDA6ADFCFF6FF0F0EF76E01
:10113000000EF86E0800F550250AD8A414D0AB5163
:10114000D96EDA6ADF2A000E6B6F250E6A6FA9C0AE
:101150006CF0AAC06DF07CEC11F0000E0001AA6FDB
:10116000010EA96F1200AB51D96EDA6ADF2A000EA8
:10117000AA6F000EA96F1200AB51D96EDA6ADFCFE9
:10118000F6FF0F0EF76E000EF86E0800F5506A6F4E
:101190006B6BA9C06CF0AAC06DF07CEC11F0000183
:1011A000AB51D96EDA6ADF2AD8D787C09FF088C0E2
:1011B000A0F089C0A1F08AC0A2F08BC0A3F08CC0BF
:1011C000A4F08DC0A5F08EC0A6F0A6AF02D0010E8F
:1011D00001D0000E9D6F9E6B9D519E11D8B410D012
:1011E000A61FA51FA41FA31FA21FA11FA01F9F6DA5
:1011F000000EA023A123A223A323A423A523A62377
:10120000DBAFDC93DBBF05D0DB5108E1DA05D8B0FA
:1012100005D0000E9A6F010E996F04D0DAC099F0D4
:10122000DBC09AF0D8C09BF0D9C09CF09D519E11B4
:10123000D8A402D0DCA503D09B07D8A09C07000E41
:10124000A86F1F0EA76F000E0101AF6F7CD0A7071C
:10125000D8A0A807900EA725D96E010EA821DA6E96
:101260009FC065F0A0C066F0A1C067F0A2C068F0A2
:10127000A3C069F0A4C06AF0A5C06BF0A6C06CF072
:101280000A0E6D6F000E6E6F000E6F6F000E706FA6
:10129000000E716F000E726F000E736F000E746F90
:1012A000FFEC0DF065C08FF066C090F067C091F064
:1012B00068C092F069C093F06AC094F06BC095F07A
:1012C0006CC096F08FC077F091C078F017EC14F0F6
:1012D0007751300FDF6E9907D8A09A079B07D8A0E7
:1012E0009C079FC065F0A0C066F0A1C067F0A2C0D7
:1012F00068F0A3C069F0A4C06AF0A5C06BF0A6C0F6
:101300006CF00A0E6D6F000E6E6F000E6F6F000EA8
:10131000706F000E716F000E726F000E736F000E13
:10132000746F23EC0CF065C09FF066C0A0F067C03E
:10133000A1F068C0A2F069C0A3F06AC0A4F06BC0BD
:10134000A5F06CC0A6F00001A8BF1FD0A85103E112
:10135000A705D8A01AD09F51A011A111A211A311C5
:10136000A411A511A611D8A472D79ABF05D09A517D
:1013700002E19905D8B06BD79CBF07D09C5103E11F
:101380009B05D8A002D0DCB362D79D519E11D8A492
:1013900002D0DCA517D0A707D8A0A8079D519E11A1
:1013A000D8A404D0000E986F2B0E03D0000E986FB7
:1013B0002D0E976F900EA725D96E010EA821DA6E1B
:1013C00097C0DFFF85C07AF086C07BF0900EA7251E
:1013D0007C6F010EA8217D6F9BC07EF09CC07FF0CA
:1013E00026EC10F07AC085F07BC086F01200010177
:1013F0008B51D8B45CD08951D8B459D00F0E4E65FA
:1014000002D0000E4E6F4E51020D2C0EF324D96EF9
:10141000010EF420DA6EDECF67F0DDCF68F0000158
:101420006751655D696F685166596A6F6B6BD8A0CB
:101430006B076B516C6F0101285100016925010197
:10144000286F295100016A210101296F2A510001E9
:101450006B2101012A6F2B5100016C2101012B6FBF
:101460004E51020D2C0EF324D96E010EF420DA6ECB
:1014700065C0DEFF66C0DDFF28C167F029C168F0E6
:101480002AC169F02BC16AF0050E06D00001D89080
:101490006A33693368336733E82EF8D767C04CF195
:1014A00068C04DF101014E2BFA0E276F12008951D1
:1014B000D8A4120027072729D8A412000A0E276FE4
:1014C0000F0E266502D0000E266F2651020D040E67
:1014D000F324D96E010EF420DA6EDECF67F0DDCF93
:1014E00068F000016751655D696F685166596A6F00
:1014F0006B6BD8A06B076B516C6F01010051000141
:1015000069250101006F015100016A210101016F8C
:10151000025100016B210101026F035100016C2196
:101520000101036F2651020D040EF324D96E010E42
:10153000F420DA6E65C0DEFF66C0DDFF00C167F033
:1015400001C168F002C169F003C16AF0050E06D05E
:101550000001D8906A33693368336733E82EF8D7CF
:1015600067C024F168C025F10101262B1200000E8E
:101570008FBC010E176E000E156E01018A51D8A4A2
:10158000ADD0175052275351D8B417C088F1532B00
:10159000090E53652ED0000E536FD8905037513737
:1015A000040E526516D050811750D8A409D0885126
:1015B000D8B406D017505227532B17C088F115D036
:1015C0008851D8A412D01750D8B40FD0010E8A6F0A
:1015D0000CD01704D8A403D08805D8A4EBD788056D
:1015E000D8A403D01704D8A4F1D7010E156E000EAD
:1015F000526F1550D8B40ED03A0E50190BE1AA0E06
:101600005119D8A407D0010E896F000E876F000E04
:10161000546F12001550D8B412008951D8B412007A
:10162000000E166E8751D8B40CD05051070B146EB3
:10163000070E1418D8B403D01450D8A402D0010E49
:10164000166E1650D8A427D0542B0F0E546523D0F5
:10165000000E546F505151C111F0126E1150506F65
:1016600012C051F1550E8725016E026A010E022249
:10167000500E036E010E046E020E056ED7EC0FF0D5
:101680000009D8B406D0010E8B6F872B310E876509
:1016900002D0010E166E1650D8B41200000E896FDB
:1016A000000E8B6F8C518D118E11D8B41200020E6A
:1016B00087651200550E0C6E010E0D6E87C10EF07F
:1016C00021EE8CF001D812000500FA6EDE50FD6E9E
:1016D000DE50FE6EDE50FF6EFA501200000E8A6F72
:1016E0001200EFEC14F0000E72EC10F0AEEC15F0FE
:1016F000889491EC0EF0150E0001C76F2CEC15F0DC
:10170000000E696F010E49EC14F0250E0001C76F41
:101710002CEC15F0150E0001D26F4B0ED16FBE0EE2
:10172000E82EFED7D12FFCD7D22FFAD700F0E0EC6D
:1017300013F0F28EF28C86EC13F0040E00017B6F36
:10174000020E7C6FC7EC0CF00009D8B4F4D7180E69
:10175000706F020E716F1EEC15F051EC15F0000E5B
:101760000001696F000E49EC14F08EA03CD0440ECD
:101770000001C76F020116510001C86FC96BC8BFD5
:10178000C907020117510001CA6FCB6BCABFCB0753
:101790002CEC15F0000E696F010E49EC14F0000EF0
:1017A0000001656F020E666F070E676F020E686FAD
:1017B000000E6A6F040E696F42EC13F0500EC76F93
:1017C00000C2C8F001C2C9F002C2CAF003C2CBF025
:1017D00018C2CCF019C2CDF01AC2CEF01BC2CFF0A5
:1017E0002CEC15F0A8D7040E0001C76F28C2C8F072
:1017F00029C2C9F02AC2CAF02BC2CBF01CC2CCF05D
:101800001DC2CDF01EC2CEF01FC2CFF02CEC15F0E1
:10181000000E696F010E49EC14F0350E0001C76F20
:1018200020C2C8F021C2C9F022C2CAF023C2CBF044
:1018300024C2CCF025C2CDF026C2CEF027C2CFF014
:101840002CEC15F078D7000E766F74AF12D0741FA1
:10185000731F721F711F701F6F1F6E1F6D6D000E43
:101860006E236F2370237123722373237423010E5D
:10187000766F6CAF12D06C1F6B1F6A1F691F681FD9
:10188000671F661F656D000E662367236823692343
:101890006A236B236C23010E761B20EE77F0070E74
:1018A000DE6AE806FDE26D516E116F117011711163
:1018B000721173117411D8B446D0010E756F0AD02D
:1018C000D8906D376E376F3770377137723773371F
:1018D0007437752B74AFF4D7D8907737783779375A
:1018E0007A377B377C377D377E376D51655D6E513A
:1018F00066596F51675970516859715169597251E0
:101900006A5973516B5974516C59D8A011D06D51EB
:10191000655F6E51665B6F51675B7051685B7151BB
:10192000695B72516A5B73516B5B74516C5B77815D
:10193000D890743373337233713370336F336E33C3
:101940006D33752FC9D77651D8B410D07E1F7D1F47
:101950007C1F7B1F7A1F791F781F776D000E7823FD
:1019600079237A237B237C237D237E2377C065F034
:1019700078C066F079C067F07AC068F07BC069F023
:101980007CC06AF07DC06BF07EC06CF01200000E6F
:101990007F6F2250D8B497D0B00E656F010E666F7E
:1019A000C60E676F010E686F000E6A6F140E696FC6
:1019B00042EC13F0000E226EC20E656F010E666FD0
:1019C0000101B0390F0B00017D6F7E6BB30E7D25D9
:1019D000676F010E7E21686F000E6A6F020E696FDD
:1019E00042EC13F0B00E766F010E776F0101B03943
:1019F0000F0B030F0001786FCBEC12F00101C25105
:101A0000000176195AE10101C35100017719D8A4E8
:101A100054D00101B0510F0BE806D8A447D0000103
:101A200020EE02F07B51D9267C51DA220101B03937
:101A30000F0BDF6E000120EE12F07B51D9267C5196
:101A4000DA22C4C1DFFF20EE13F07B51D9267C518E
:101A5000DA22C5C1DFFF7BC065F07CC066F0B10E45
:101A6000676F010E686F000E6A6F020E696F42ECBD
:101A700013F0030E7B25656F000E7C21666FB30E9D
:101A8000676F010E686F0101B0390F0B00017D6FA8
:101A90007D51696F6A6B42EC13F0010E7F6F010E8E
:101AA0002326000E2422252226220DD0010E2B26CD
:101AB000000E2C222D222E2206D0010E2726000EEB
:101AC000282229222A2200017F51120065C06FF0CE
:101AD00066C070F069516A11D8B412006FC0D9FFA6
:101AE00070C0DAFF67C0DFFF69516F256B6F6A5105
:101AF00070216C6FFF0E6B25D96EFF0E6C21DA6EB4
:101B000067C0DFFF6A5104E1030E695DD8A01200CF
:101B100020EE01F06F51D9267051DA2267C0DFFF45
:101B200020EE02F06F51D9267051DA2267C0DFFF34
:101B300069516F256B6F6A5170216C6FFE0E6B25BA
:101B4000D96EFF0E6C21DA6E67C0DFFF69516F2519
:101B50006B6F6A5170216C6FFD0E6B25D96EFF0E95
:101B60006C21DA6E67C0DFFF6A5104E1070E695D20
:101B7000D8A0120020EE03F06F51D9267051DA225E
:101B800067C0DFFF69516F256B6F6A5170216C6F01
:101B9000FC0E6B25D96EFF0E6C21DA6E67C0DFFF7D
:101BA0006A5104E1090E695DD8A012006FC06BF0A4
:101BB00070C06CF06B1F6C1F6B4B6C2B030E6B15A6
:101BC0006D6F6E6B6D516F276E5170236D51695F34
:101BD0006E516A5BFC0E6917FF0E6A170BD06FC05F
:101BE000D9FF70C0DAFF67C0DFFF6907D8A06A07B6
:101BF0006F4B702B69516A11D8B41200F0D7000EE8
:101C0000766F6CAF12D06C1F6B1F6A1F691F681F45
:101C1000671F661F656D000E6623672368236923AF
:101C20006A236B236C23010E766F74AF10D0741F80
:101C3000731F721F711F701F6F1F6E1F6D6D000E5F
:101C40006E236F23702371237223732374236D51CA
:101C50006E116F1170117111721173117411D8B46A
:101C60003CD0010E756F0AD0D8906D376E376F3744
:101C700070377137723773377437752B74AFF4D789
:101C80006D51655D6E5166596F5167597051685954
:101C90007151695972516A5973516B5974516C5928
:101CA000D8A010D06D51655F6E51665B6F51675B58
:101CB0007051685B7151695B72516A5B73516B5B08
:101CC00074516C5BD89074337333723371337033E7
:101CD0006F336E336D33752FD3D77651D8B410D0A0
:101CE0006C1F6B1F6A1F691F681F671F661F656D6A
:101CF000000E66236723682369236A236B236C2302
:101D000065C065F066C066F067C067F068C068F0DF
:101D100069C069F06AC06AF06BC06BF06CC06CF0AF
:101D20001200000E0001666F000E00EC15F0000EB0
:101D30000001666F010E00EC15F0200E0001666FC9
:101D4000120E00EC15F01A0E0001696FF80EE82E65
:101D5000FED7692FFCD700F03C0EA4EC14F01A0E4D
:101D60000001696FF80EE82EFED7692FFCD700F04E
:101D70000C0EA4EC14F01A0E0001696FF80EE82E98
:101D8000FED7692FFCD700F0010EA4EC14F01A0E58
:101D90000001696FF80EE82EFED7692FFCD700F01E
:101DA0000C0EA4EC14F0340E0001696FF10EE82E55
:101DB000FED7692FFCD700D0340E0001696FF10EF9
:101DC000E82EFED7692FFCD700D0340E0001696FD2
:101DD000F10EE82EFED7692FFCD700D0340E00019B
:101DE000696FF10EE82EFED7692FFCD700D0340EB4
:101DF0000001696FF10EE82EFED7692FFCD700D0E5
:101E0000340E0001696FF10EE82EFED7692FFCD762
:101E100000D0340E0001696FF10EE82EFED7692F55
:101E2000FCD700D0800EA4EC14F0030E0001696F03
:101E3000970EE82EFED7692FFCD700D01200716FE5
:101E40007C9C0E01D19D7D500F0B00016E6F6E3B8F
:101E50007D506E190F0B6E197D6E080E386402D01E
:101E6000000E756E000E746E7C8C0E01D1ADFDD728
:101E7000D19D7C9C37C06EF0FF0E00016E276E3B3B
:101E80007D506E190F0B6E197D6E77506E6F765008
:101E9000746F6EC075F0100E386018D038C06EF0D8
:101EA000010E6F6F000E706F6E2B03D0D8906F37DE
:101EB00070376E2FFBD7FF0E00016F25726FFF0E7C
:101EC0007021736F72517417735175177151D8B4B3
:101ED0000AD074C065F075C066F0A1EC12F065C060
:101EE00074F066C075F06C51741B6D51751B74C035
:101EF0006CF075C06DF0120065C06AF066C06BF0E2
:101F00006707D8A0680767290DE16829D8A40AD017
:101F1000000E666F000E656F12006A2B6B2B670751
:101F2000D8A068076AC0F6FF0F0EF76E000EF86EB5
:101F30000800F5500009D8B423D06BC0F6FF0F0E8F
:101F4000F76E000EF86E0800F5500009D8B418D0EE
:101F500067516811D8B414D06AC0F6FF0F0EF76E3F
:101F6000000EF86E0800F5CF69F06BC0F6FF0F0E9B
:101F7000F76E000EF86E0800F5506919D8B4CDD789
:101F80006AC0F6FF0F0EF76E000EF86E0800F5CF70
:101F900069F06BC0F6FF0F0EF76E000EF86E0800CA
:101FA000F550695D656F666BD8A066071200000E7C
:101FB0000E6E05B049D0010E0E6E000E0D6E01C002
:101FC00008F002C009F003C00AF004C00BF035D0DD
:101FD000000E0F6E0AC0D9FF0BC0DAFFDF500C6E87
:101FE0000A4A0B2AD8900D3205D00D8E12D0000E61
:101FF0000E6E0FD00C50030B066E076A0750000AD6
:10200000D8A4F5D70650010AD8B4EFD7030AD8A44C
:10201000EED70F2AD8900C32D8900C32030E0F64F2
:10202000E1D705B00AD008C0D9FF09C0DAFF0DC05A
:10203000DFFF084A092A000E0D6E0E50D8B404D0F6
:1020400005060528D8A4C4D70E501200DCA10AD07A
:102050007CC073F07DC074F07AC075F07BC076F000
:10206000A6EC13F07FBF05D07EC083F07FC084F064
:1020700004D0000E846F000E836F000E826F000E7E
:10208000816F0DD0000E6B6F200E6A6F7AC06CF0FE
:102090007BC06DF07CEC11F00001814B822B8351F1
:1020A000815D8251800A806F8451800A8059D8A056
:1020B000E9D7DCB10AD07CC073F07DC074F07AC07F
:1020C00075F07BC076F0A6EC13F07CC065F07DC0A7
:1020D00066F08FEC14F0835165257A6F8451662188
:1020E0007B6F1200676F96BA1200130E0E01B76F66
:1020F000140EB86F0F0EFA6F100EFC6F00016751CF
:10210000030DF3CF65F0010E65276551010F666F72
:1021100066C0F6FF0F0EF76E000EF86E0800F5CFE2
:1021200095FF6751030DF350010F656F65C0F6FF12
:102130000F0EF76E000EF86E0800F5502A09966E25
:10214000000E976E6751030DF3CF65F0020E652701
:102150006551010F666F66C0F6FF0F0EF76E000E39
:10216000F86E0800F5CF93FF8A961200000E876E76
:10217000000E866E000E836E200E846E000E856E3D
:10218000070E8C6EFB0E886EDF0E896ED70E8A6E80
:10219000F00E8B6E000E0F01266F070E216FDE0E04
:1021A000196F070E2E6FFB0E116F000E256F000EBC
:1021B0002D6F000E186F000E106F000E206F000EB6
:1021C0002C6F000E0F6F000E176F000E1F6F000EAA
:1021D000246F0E6916691E692369070E2B6F130E93
:1021E0000E01B76F0F0EFA6F100EFC6F140EB86F62
:1021F0001200000E066E04AE06D0036C041ED8B0AA
:10220000042A010E066E02AE06D0016C021ED8B082
:10221000022A010E061A000E086E000E076E035009
:102220000410D8B41CD0010E056E04D0D89003362B
:102230000436052A04AEFAD7D8900736083603507C
:10224000015C04500258D8A005D00350015E045030
:10225000025A0780D89004320332052EEDD706507B
:10226000D8B404D0076C081ED8B0082A07C001F003
:1022700008C002F01200000E796F000E7A6F000E97
:102280007B6F000E7C6F7551761177117811D8B481
:102290002AD0010E7D6F06D0D89075377637773704
:1022A00078377D2B78AFF8D7D89079377A377B3766
:1022B0007C377551715D76517259775173597851E8
:1022C0007459D8A009D07551715F7651725B7751FE
:1022D000735B7851745B7981D89078337733763338
:1022E00075337D2FE1D779C071F07AC072F07BC071
:1022F00073F07CC074F012006C516D11D8B404D02E
:102300006C516D11D8A404D06A519CEC15F01200E8
:1023100020EE09F06C51D9266D51DA22DE50DE1024
:10232000D8B416D020EE09F06C51D9266D51DA22BE
:1023300010EE03F06C51E1266D51E222DE50E65CB6
:10234000E650800A726FDE50800A7259D8B01200CF
:1023500020EE03F06C51D9266D51DA22DE2A000EF0
:10236000DD2212002250D8A42AD0150E0E6020D0F3
:10237000C60E0F6E010E106E0ED00CC0D9FF0DC030
:10238000DAFF0FC0E1FF10C0E2FFDFCFE7FF0C4A2A
:102390000D2A0F4A102A0E060E28D8A4EED7FCEC00
:1023A00013F0C46FC3EC13F0C56F010E226E120060
:1023B000010E3326000E3422352236221200010E81
:1023C0002F26000E3022312232221200820E7C6E25
:1023D0007F0E7D6E000E766E000E776E000E0F0182
:1023E0004F6F000E4B6F000E4A6F000E496F3F0E8D
:1023F0004E6F4D694C69000E506F800E0001676F83
:10240000050E666F67C07BFF050E7A6E000E696F62
:10241000000E686F69C077FF000E766E7D380F0B77
:10242000656F6529376E7D500F0B656F6529386EB6
:102430001200000E6A6E000E6B6E000E6C6E000EC7
:102440006D6E000E686E000E696E000E666E000EF8
:102450000F015F6F000E5D6F000E596F000E5A6F17
:10246000000E5B6F000E656E000E586F080E566F03
:10247000000E576F900E606E000E5C6F0E01CB91D8
:10248000C3819C0E0001656F2B0E666F000E676F97
:1024900079EC15F012007EC065F07FC066F0676BC6
:1024A000686BB20E696FC40E6A6F000E6B6F000E20
:1024B0006C6F76EC12F065C071F066C072F067C0A8
:1024C00073F068C074F0400E756F420E766F0F0E99
:1024D000776F000E786F3BEC11F071C080F072C026
:1024E00081F080C07EF081C07FF01200000E6D6F21
:1024F000000E6E6F000E6F6F000E706F65A108D03A
:1025000069516D276A516E236B516F236C51702393
:10251000D89069376A376B376C37D8906833673330
:10252000663365336551661167116811D8A4E6D723
:102530006DC065F06EC066F06FC067F070C068F087
:102540001200000E6B6F010E6A6F38C067F0FF0E4D
:102550006727672903D0D8906A376B37E82EFBD7F7
:10256000000E0001696F000E686F0CD065A104D0E9
:102570006A5168136B516913D8906B336A33D890E2
:102580006633653365516611D8A4F0D768C065F02D
:1025900069C066F0120076C079F077C07AF0E6EC98
:1025A00011F0D1EC15F00FD079C0D9FF7AC0DAFF65
:1025B000DF50A8EC15F00001794B7A2BA2EC15F056
:1025C0000009D8A4FBD7000178077829D8A4ECD754
:1025D000000E6D6F000E6C6F000E1FEC0FF06CC0E4
:1025E00076F06DC077F012000001716F000171513B
:1025F000D8B41BD0010E01018F6F78EC14F06E0E71
:102600000001656F150E666F000E676F87EC15F0A1
:10261000C2EC15F0EE0E656F130E666F000E676F5D
:102620008EEC15F0B4EC15F01200BFEC15F0C5EC13
:1026300015F0000E01018F6F1200C4C0C6F0000E2D
:10264000D76F000ED66F0ED0C2C0A9F0C3C0AAF0DB
:10265000C60EAB6FC5C0ACF0B0EC07F0A951D627E1
:10266000AA51D723C6C0F6FF0F0EF76E000EF86E04
:102670000800F5500009D8A4E7D7D6C0C2F0D7C0EB
:10268000C3F0120067C06EF068C06FF065C06CF0F8
:1026900066C06DF010D06EC0D9FF6FC0DAFFDF509A
:1026A0006B6F6E4B6F2B6CC0D9FF6DC0DAFF6BC0C8
:1026B000DFFF6C4B6D2B6907D8A06A076929EBE136
:1026C0006A29D8B41200E7D7FACF18F0FBCF19F077
:1026D000E1CF1AF0E2CF1BF0D9CF1CF0DACF1DF01A
:1026E0000E01C6B7CEA703D0DDEC14F001D000F088
:1026F0001DC0DAFF1CC0D9FF1BC0E2FF1AC0E1FFFA
:1027000019C0FBFF18C0FAFF409211000001E05110
:10271000D8B41200000EE06FDEC07EF0DFC07FF0A4
:102720004BEC12F07EC082F07FC083F082C065F077
:1027300083C066F001D812000500FA6ED351FD6E19
:10274000D451FE6ED551FF6EFA501200000E796F13
:10275000000E786F0CD077C06AF06B6B75C06CF0B0
:1027600076C06DF07CEC11F00001784B792B78513C
:102770007325D96E79517421DA6EDF50776F7751F6
:10278000D8B41200E8D721EE24F0DECF09F0DDCF77
:102790000AF0D89009360A36D89009360A36300E33
:1027A0000924016EF80E0A20026E000E046E640EFB
:1027B000036EF9EC10F00150920F0B6E0B501200EB
:1027C00078EC14F0010EF4EC12F0640E0001656F69
:1027D000230E666F000E676F80EC15F0230E656F99
:1027E000666B000E686F000E676F000E6A6F140E46
:1027F000696F66EC0DF0120021EE4CF0DECF09F0AF
:10280000DDCF0AF0D89009360A36D89009360A3654
:10281000300E0924016EF80E0A20026E000E046EBE
:10282000640E036EF9EC10F00150920F120078BFA5
:1028300005D0785110E17705D8B00DD077C079F088
:1028400078C07AF0791F7A1F794B7A2B79C077F0AC
:102850007AC078F0120077C077F078C078F0120074
:10286000020EB96E000EB86E000EBA6E310EB66E64
:10287000000EB56E0E01CE97C687B60E0001656FCD
:102880002B0E666F000E676F87EC15F0C00EB76EEB
:1028900012006F6F020E00016F6112006F51D8B409
:1028A00002D0C00E01D0800E69C06AF06B6B6A1155
:1028B0006D6F6B516E6F6DC06CF06C51A4EC14F0C9
:1028C000120001EE00F0DA0EEE6AE806FDE100EE1D
:1028D000D3F00E0EEE6AE806FDE100EE22F0180ECF
:1028E000EE6AE806FDE140904092000171EF0BF0C6
:1028F0008A8C000E0001656F010E666F000E686F16
:10290000000E676F000E6A6F900E696F66EC0DF037
:10291000000E01018C6F000E8D6F8E6B120065C072
:1029200067F066C068F002D0654B662B65C0D9FFC2
:1029300066C0DAFFDF50D8A4F7D76751655D656FD1
:1029400068516659666F12000001686F600E0001E1
:10295000666F120E00EC15F068C066F0130E00EC06
:1029600015F0200E0001666F120E00EC15F012003B
:10297000686FE00E0001666F120E00EC15F068C083
:1029800066F0130E00EC15F0A00E0001666F120E3B
:1029900000EC15F01200CB913D503E103F10D8B422
:1029A000120001D812000500FA6E3D50FD6E3E5037
:1029B000FE6E3F50FF6EFA501200CE973A503B1019
:1029C0003C10D8B4120001D812000500FA6E3A503B
:1029D000FD6E3B50FE6E3C50FF6EFA501200BAEC9A
:1029E00015F039EC15F0B6EC10F046EC15F010ECE3
:1029F00015F0E6EC11F019EC12F030EC14F01200C6
:102A00000001676F8394400E5BEC15F00001675185
:102A10005BEC15F0000166515BEC15F0838412004D
:102A2000010EB36E000EB26E000EB46E1E0EB06ECE
:102A3000000EAF6ECE9BF10EB16E120070C065F04D
:102A400071C066F0230E676F686B000E6A6F140E1C
:102A5000696F42EC13F01200C80ED06F000EC26F07
:102A6000000EC36FC7C0C4F0D00EC56F1DEC13F0CD
:102A70001200000EE16F000EE26F000EE36F000E19
:102A8000E46F000EE56F000EE66F1200600ED86F67
:102A9000000EDA6F000EDC6F030EDE6F000EDD6FCE
:102AA0001200010EA4EC14F0000E0001696F000E7C
:102AB00049EC14F012000001656F65C092FF0E0131
:102AC000CDA1FDD7CD9192501200010E0001E06F13
:102AD0006FEC15F01EC0DEF01FC0DFF01200645076
:102AE000216E206A635020241E6E000E21201F6E6E
:102AF000120065C03DF066C03EF067C03FF01200B6
:102B000065C08CF166C08DF167C08EF1120065C0A2
:102B10003AF066C03BF067C03CF0120065C0D3F0ED
:102B200066C0D4F067C0D5F012000001656F65C0C3
:102B30005FFF608E60801200696F00016951B8EC20
:102B400014F012007CAA02D0010E1200000E120036
:102B5000656F7CB0120065C074FF1200100E95EC1A
:102B600015F0B4EC15F01200100E95EC15F0CBEC4E
:102B700015F01200F28A0E01BE87BB911200D3EC51
:102B800015F01200D5EC15F01200C8EC15F012008B
:102B9000D7EC15F01200D9EC15F0120065EC15F029
:102BA00012007C8C1200B79E1200B78E1200B19EEC
:082BB0001200B18E12001200A8
:020000040020DA
:10000000FF0FFF0FFF0FFF0FFF0FFF0FFF0FFF0F80
:020000040030CA
:0C0000008CFFFFFF9FFFFFDFFFFFFFFFF3
:00000001FF
